{
  "_format": "hh-sol-artifact-1",
  "contractName": "WSO2",
  "sourceName": "contracts/WSO2Token.sol",
  "abi": [
    {
      "inputs": [
        {
          "internalType": "uint256",
          "name": "_supply",
          "type": "uint256"
        }
      ],
      "stateMutability": "nonpayable",
      "type": "constructor"
    },
    {
      "anonymous": false,
      "inputs": [
        {
          "indexed": false,
          "internalType": "address",
          "name": "holder",
          "type": "address"
        },
        {
          "indexed": false,
          "internalType": "bool",
          "name": "status",
          "type": "bool"
        }
      ],
      "name": "AddAuthorizedWallet",
      "type": "event"
    },
    {
      "anonymous": false,
      "inputs": [
        {
          "indexed": true,
          "internalType": "address",
          "name": "owner",
          "type": "address"
        },
        {
          "indexed": true,
          "internalType": "address",
          "name": "spender",
          "type": "address"
        },
        {
          "indexed": false,
          "internalType": "uint256",
          "name": "value",
          "type": "uint256"
        }
      ],
      "name": "Approval",
      "type": "event"
    },
    {
      "anonymous": false,
      "inputs": [
        {
          "indexed": true,
          "internalType": "address",
          "name": "previousOwner",
          "type": "address"
        },
        {
          "indexed": true,
          "internalType": "address",
          "name": "newOwner",
          "type": "address"
        }
      ],
      "name": "OwnershipTransferred",
      "type": "event"
    },
    {
      "anonymous": false,
      "inputs": [
        {
          "indexed": true,
          "internalType": "address",
          "name": "from",
          "type": "address"
        },
        {
          "indexed": true,
          "internalType": "address",
          "name": "to",
          "type": "address"
        },
        {
          "indexed": false,
          "internalType": "uint256",
          "name": "value",
          "type": "uint256"
        }
      ],
      "name": "Transfer",
      "type": "event"
    },
    {
      "inputs": [
        {
          "internalType": "address[]",
          "name": "_address",
          "type": "address[]"
        },
        {
          "internalType": "uint256[]",
          "name": "_amounts",
          "type": "uint256[]"
        }
      ],
      "name": "airDropTokens",
      "outputs": [],
      "stateMutability": "nonpayable",
      "type": "function"
    },
    {
      "inputs": [
        {
          "internalType": "address",
          "name": "holder",
          "type": "address"
        },
        {
          "internalType": "address",
          "name": "spender",
          "type": "address"
        }
      ],
      "name": "allowance",
      "outputs": [
        {
          "internalType": "uint256",
          "name": "",
          "type": "uint256"
        }
      ],
      "stateMutability": "view",
      "type": "function"
    },
    {
      "inputs": [
        {
          "internalType": "address",
          "name": "spender",
          "type": "address"
        },
        {
          "internalType": "uint256",
          "name": "amount",
          "type": "uint256"
        }
      ],
      "name": "approve",
      "outputs": [
        {
          "internalType": "bool",
          "name": "",
          "type": "bool"
        }
      ],
      "stateMutability": "nonpayable",
      "type": "function"
    },
    {
      "inputs": [
        {
          "internalType": "address",
          "name": "spender",
          "type": "address"
        }
      ],
      "name": "approveMax",
      "outputs": [
        {
          "internalType": "bool",
          "name": "",
          "type": "bool"
        }
      ],
      "stateMutability": "nonpayable",
      "type": "function"
    },
    {
      "inputs": [
        {
          "internalType": "address",
          "name": "account",
          "type": "address"
        }
      ],
      "name": "balanceOf",
      "outputs": [
        {
          "internalType": "uint256",
          "name": "",
          "type": "uint256"
        }
      ],
      "stateMutability": "view",
      "type": "function"
    },
    {
      "inputs": [],
      "name": "decimals",
      "outputs": [
        {
          "internalType": "uint8",
          "name": "",
          "type": "uint8"
        }
      ],
      "stateMutability": "pure",
      "type": "function"
    },
    {
      "inputs": [
        {
          "internalType": "address",
          "name": "",
          "type": "address"
        }
      ],
      "name": "isAuthorized",
      "outputs": [
        {
          "internalType": "bool",
          "name": "",
          "type": "bool"
        }
      ],
      "stateMutability": "view",
      "type": "function"
    },
    {
      "inputs": [
        {
          "internalType": "uint256",
          "name": "_tokenAmount",
          "type": "uint256"
        }
      ],
      "name": "mintTokens",
      "outputs": [],
      "stateMutability": "nonpayable",
      "type": "function"
    },
    {
      "inputs": [],
      "name": "name",
      "outputs": [
        {
          "internalType": "string",
          "name": "",
          "type": "string"
        }
      ],
      "stateMutability": "pure",
      "type": "function"
    },
    {
      "inputs": [],
      "name": "owner",
      "outputs": [
        {
          "internalType": "address",
          "name": "",
          "type": "address"
        }
      ],
      "stateMutability": "view",
      "type": "function"
    },
    {
      "inputs": [],
      "name": "renounceOwnership",
      "outputs": [],
      "stateMutability": "nonpayable",
      "type": "function"
    },
    {
      "inputs": [
        {
          "internalType": "address",
          "name": "_wallet",
          "type": "address"
        },
        {
          "internalType": "bool",
          "name": "_status",
          "type": "bool"
        }
      ],
      "name": "setAuthorizedWallets",
      "outputs": [],
      "stateMutability": "nonpayable",
      "type": "function"
    },
    {
      "inputs": [],
      "name": "symbol",
      "outputs": [
        {
          "internalType": "string",
          "name": "",
          "type": "string"
        }
      ],
      "stateMutability": "pure",
      "type": "function"
    },
    {
      "inputs": [],
      "name": "totalSupply",
      "outputs": [
        {
          "internalType": "uint256",
          "name": "",
          "type": "uint256"
        }
      ],
      "stateMutability": "view",
      "type": "function"
    },
    {
      "inputs": [
        {
          "internalType": "address",
          "name": "recipient",
          "type": "address"
        },
        {
          "internalType": "uint256",
          "name": "amount",
          "type": "uint256"
        }
      ],
      "name": "transfer",
      "outputs": [
        {
          "internalType": "bool",
          "name": "",
          "type": "bool"
        }
      ],
      "stateMutability": "nonpayable",
      "type": "function"
    },
    {
      "inputs": [
        {
          "internalType": "address",
          "name": "sender",
          "type": "address"
        },
        {
          "internalType": "address",
          "name": "recipient",
          "type": "address"
        },
        {
          "internalType": "uint256",
          "name": "amount",
          "type": "uint256"
        }
      ],
      "name": "transferFrom",
      "outputs": [
        {
          "internalType": "bool",
          "name": "",
          "type": "bool"
        }
      ],
      "stateMutability": "nonpayable",
      "type": "function"
    },
    {
      "inputs": [
        {
          "internalType": "address",
          "name": "newOwner",
          "type": "address"
        }
      ],
      "name": "transferOwnership",
      "outputs": [],
      "stateMutability": "nonpayable",
      "type": "function"
    },
    {
      "stateMutability": "payable",
      "type": "receive"
    }
  ],
  "bytecode": "0x60806040523480156200001157600080fd5b5060405162000f8738038062000f87833981016040819052620000349162000117565b6200003f33620000c7565b336000908152600460205260409020805460ff19166001179055620000676009600a62000246565b6200007390826200025e565b600181905533600081815260026020908152604080832085905551938452919290917fddf252ad1be2c89b69c2b068fc378daa952ba7f163c4a11628f55a4df523b3ef910160405180910390a35062000280565b600080546001600160a01b038381166001600160a01b0319831681178455604051919092169283917f8be0079c531659141344cd1fd0a4f28419497f9722a3daafe3b4186f6b6457e09190a35050565b6000602082840312156200012a57600080fd5b5051919050565b634e487b7160e01b600052601160045260246000fd5b600181815b80851115620001885781600019048211156200016c576200016c62000131565b808516156200017a57918102915b93841c93908002906200014c565b509250929050565b600082620001a15750600162000240565b81620001b05750600062000240565b8160018114620001c95760028114620001d457620001f4565b600191505062000240565b60ff841115620001e857620001e862000131565b50506001821b62000240565b5060208310610133831016604e8410600b841016171562000219575081810a62000240565b62000225838362000147565b80600019048211156200023c576200023c62000131565b0290505b92915050565b60006200025760ff84168362000190565b9392505050565b60008160001904831182151516156200027b576200027b62000131565b500290565b610cf780620002906000396000f3fe6080604052600436106101025760003560e01c806370a082311161009557806397304ced1161006457806397304ced146102da578063a9059cbb146102fa578063dd62ed3e1461031a578063f2fde38b14610360578063fe9fbb801461038057600080fd5b806370a082311461023a578063715018a6146102705780638da5cb5b1461028557806395d89b41146102ad57600080fd5b8063313ce567116100d1578063313ce567146101bc5780633683685a146101d85780634c57f8d2146101fa578063571ac8b01461021a57600080fd5b806306fdde031461010e578063095ea7b31461014d57806318160ddd1461017d57806323b872dd1461019c57600080fd5b3661010957005b600080fd5b34801561011a57600080fd5b506040805180820190915260048152632bb9b79960e11b60208201525b604051610144919061093d565b60405180910390f35b34801561015957600080fd5b5061016d6101683660046109ae565b6103b0565b6040519015158152602001610144565b34801561018957600080fd5b506001545b604051908152602001610144565b3480156101a857600080fd5b5061016d6101b73660046109d8565b61041c565b3480156101c857600080fd5b5060405160098152602001610144565b3480156101e457600080fd5b506101f86101f3366004610a14565b610520565b005b34801561020657600080fd5b506101f8610215366004610b26565b610553565b34801561022657600080fd5b5061016d610235366004610be6565b6105f5565b34801561024657600080fd5b5061018e610255366004610be6565b6001600160a01b031660009081526002602052604090205490565b34801561027c57600080fd5b506101f8610609565b34801561029157600080fd5b506000546040516001600160a01b039091168152602001610144565b3480156102b957600080fd5b506040805180820190915260048152632ba9a79960e11b6020820152610137565b3480156102e657600080fd5b506101f86102f5366004610c01565b61061d565b34801561030657600080fd5b5061016d6103153660046109ae565b6106ed565b34801561032657600080fd5b5061018e610335366004610c1a565b6001600160a01b03918216600090815260036020908152604080832093909416825291909152205490565b34801561036c57600080fd5b506101f861037b366004610be6565b610701565b34801561038c57600080fd5b5061016d61039b366004610be6565b60046020526000908152604090205460ff1681565b3360008181526003602090815260408083206001600160a01b038716808552925280832085905551919290917f8c5be1e5ebec7d5bd14f71427d1e84f3dd0314c0f7b2291e5b200ac8c7c3b9259061040b9086815260200190565b60405180910390a350600192915050565b6001600160a01b03831660009081526003602090815260408083203384529091528120546000191461050d576001600160a01b03841660009081526003602090815260408083203384529091529020548211156104b95760405162461bcd60e51b8152602060048201526016602482015275496e73756666696369656e7420416c6c6f77616e636560501b60448201526064015b60405180910390fd5b6001600160a01b03841660009081526003602090815260408083203384529091529020546104e8908390610c63565b6001600160a01b03851660009081526003602090815260408083203384529091529020555b61051884848461077a565b949350505050565b610528610893565b6001600160a01b03919091166000908152600460205260409020805460ff1916911515919091179055565b80518251146105945760405162461bcd60e51b815260206004820152600d60248201526c125b9d985b1a5908125b9c1d5d609a1b60448201526064016104b0565b60005b82518110156105f0576105dd338483815181106105b6576105b6610c7a565b60200260200101518484815181106105d0576105d0610c7a565b602002602001015161077a565b50806105e881610c90565b915050610597565b505050565b6000610603826000196103b0565b92915050565b610611610893565b61061b60006108ed565b565b3360009081526004602052604090205460ff166106755760405162461bcd60e51b8152602060048201526016602482015275139bdd08185d5d1a1bdc9a5e9959081d1bc81b5a5b9d60521b60448201526064016104b0565b3360009081526002602052604081208054839290610694908490610ca9565b9250508190555080600160008282546106ad9190610ca9565b909155505060405181815233906000907fddf252ad1be2c89b69c2b068fc378daa952ba7f163c4a11628f55a4df523b3ef9060200160405180910390a350565b60006106fa33848461077a565b9392505050565b610709610893565b6001600160a01b03811661076e5760405162461bcd60e51b815260206004820152602660248201527f4f776e61626c653a206e6577206f776e657220697320746865207a65726f206160448201526564647265737360d01b60648201526084016104b0565b610777816108ed565b50565b6001600160a01b0383166000908152600260205260408120548211156107d95760405162461bcd60e51b8152602060048201526014602482015273496e73756666696369656e742042616c616e636560601b60448201526064016104b0565b6001600160a01b0384166000908152600260205260409020546107fd908390610c63565b6001600160a01b03808616600090815260026020526040808220939093559085168152205461082d908390610ca9565b6001600160a01b0380851660008181526002602052604090819020939093559151908616907fddf252ad1be2c89b69c2b068fc378daa952ba7f163c4a11628f55a4df523b3ef906108819086815260200190565b60405180910390a35060019392505050565b6000546001600160a01b0316331461061b5760405162461bcd60e51b815260206004820181905260248201527f4f776e61626c653a2063616c6c6572206973206e6f7420746865206f776e657260448201526064016104b0565b600080546001600160a01b038381166001600160a01b0319831681178455604051919092169283917f8be0079c531659141344cd1fd0a4f28419497f9722a3daafe3b4186f6b6457e09190a35050565b600060208083528351808285015260005b8181101561096a5785810183015185820160400152820161094e565b8181111561097c576000604083870101525b50601f01601f1916929092016040019392505050565b80356001600160a01b03811681146109a957600080fd5b919050565b600080604083850312156109c157600080fd5b6109ca83610992565b946020939093013593505050565b6000806000606084860312156109ed57600080fd5b6109f684610992565b9250610a0460208501610992565b9150604084013590509250925092565b60008060408385031215610a2757600080fd5b610a3083610992565b915060208301358015158114610a4557600080fd5b809150509250929050565b634e487b7160e01b600052604160045260246000fd5b604051601f8201601f1916810167ffffffffffffffff81118282101715610a8f57610a8f610a50565b604052919050565b600067ffffffffffffffff821115610ab157610ab1610a50565b5060051b60200190565b600082601f830112610acc57600080fd5b81356020610ae1610adc83610a97565b610a66565b82815260059290921b84018101918181019086841115610b0057600080fd5b8286015b84811015610b1b5780358352918301918301610b04565b509695505050505050565b60008060408385031215610b3957600080fd5b823567ffffffffffffffff80821115610b5157600080fd5b818501915085601f830112610b6557600080fd5b81356020610b75610adc83610a97565b82815260059290921b84018101918181019089841115610b9457600080fd5b948201945b83861015610bb957610baa86610992565b82529482019490820190610b99565b96505086013592505080821115610bcf57600080fd5b50610bdc85828601610abb565b9150509250929050565b600060208284031215610bf857600080fd5b6106fa82610992565b600060208284031215610c1357600080fd5b5035919050565b60008060408385031215610c2d57600080fd5b610c3683610992565b9150610c4460208401610992565b90509250929050565b634e487b7160e01b600052601160045260246000fd5b600082821015610c7557610c75610c4d565b500390565b634e487b7160e01b600052603260045260246000fd5b600060018201610ca257610ca2610c4d565b5060010190565b60008219821115610cbc57610cbc610c4d565b50019056fea26469706673582212203107174fc81fa7243cd9a9e24dc06ef51044d38cbbf4caeefe7470424e163b4864736f6c634300080e0033",
  "linkReferences": {},
  "deployedLinkReferences": {}
}